{
  "_format": "hh-sol-artifact-1",
  "contractName": "ElectionFactory",
  "sourceName": "contracts/ElectionFactory.sol",
  "abi": [
    {
      "inputs": [],
      "stateMutability": "nonpayable",
      "type": "constructor"
    },
    {
      "anonymous": false,
      "inputs": [
        {
          "indexed": false,
          "internalType": "address",
          "name": "candidateAddress",
          "type": "address"
        },
        {
          "indexed": false,
          "internalType": "string",
          "name": "name",
          "type": "string"
        },
        {
          "indexed": false,
          "internalType": "string",
          "name": "publicPromise",
          "type": "string"
        }
      ],
      "name": "NewCandidate",
      "type": "event"
    },
    {
      "anonymous": false,
      "inputs": [
        {
          "indexed": false,
          "internalType": "string",
          "name": "newChairmanName",
          "type": "string"
        },
        {
          "indexed": false,
          "internalType": "string",
          "name": "publicPromise",
          "type": "string"
        },
        {
          "indexed": false,
          "internalType": "uint256",
          "name": "voteCount",
          "type": "uint256"
        }
      ],
      "name": "NewChairman",
      "type": "event"
    },
    {
      "anonymous": false,
      "inputs": [
        {
          "indexed": false,
          "internalType": "uint256",
          "name": "electionPeriod",
          "type": "uint256"
        }
      ],
      "name": "StartNewElection",
      "type": "event"
    },
    {
      "anonymous": false,
      "inputs": [
        {
          "indexed": true,
          "internalType": "address",
          "name": "from",
          "type": "address"
        }
      ],
      "name": "VoteAbstain",
      "type": "event"
    },
    {
      "anonymous": false,
      "inputs": [
        {
          "indexed": true,
          "internalType": "address",
          "name": "from",
          "type": "address"
        },
        {
          "indexed": true,
          "internalType": "address",
          "name": "to",
          "type": "address"
        },
        {
          "indexed": false,
          "internalType": "string",
          "name": "candidateName",
          "type": "string"
        }
      ],
      "name": "VoteSomeone",
      "type": "event"
    },
    {
      "inputs": [],
      "name": "FinishElection",
      "outputs": [
        {
          "internalType": "string",
          "name": "",
          "type": "string"
        }
      ],
      "stateMutability": "nonpayable",
      "type": "function"
    },
    {
      "inputs": [],
      "name": "GetAllCandidates",
      "outputs": [
        {
          "components": [
            {
              "internalType": "string",
              "name": "name",
              "type": "string"
            },
            {
              "internalType": "string",
              "name": "publicPromise",
              "type": "string"
            },
            {
              "internalType": "address",
              "name": "myAddress",
              "type": "address"
            },
            {
              "internalType": "uint256",
              "name": "voteCount",
              "type": "uint256"
            }
          ],
          "internalType": "struct ElectionFactory.Candidate[]",
          "name": "",
          "type": "tuple[]"
        }
      ],
      "stateMutability": "view",
      "type": "function"
    },
    {
      "inputs": [],
      "name": "GetElectionPeriod",
      "outputs": [
        {
          "internalType": "uint256",
          "name": "",
          "type": "uint256"
        }
      ],
      "stateMutability": "view",
      "type": "function"
    },
    {
      "inputs": [],
      "name": "GetNewChairman",
      "outputs": [
        {
          "internalType": "string",
          "name": "",
          "type": "string"
        }
      ],
      "stateMutability": "view",
      "type": "function"
    },
    {
      "inputs": [],
      "name": "GetNumOfCandidates",
      "outputs": [
        {
          "internalType": "uint256",
          "name": "",
          "type": "uint256"
        }
      ],
      "stateMutability": "view",
      "type": "function"
    },
    {
      "inputs": [],
      "name": "GetSumOfCandidates",
      "outputs": [
        {
          "internalType": "uint256",
          "name": "",
          "type": "uint256"
        }
      ],
      "stateMutability": "view",
      "type": "function"
    },
    {
      "inputs": [
        {
          "internalType": "string",
          "name": "_name",
          "type": "string"
        },
        {
          "internalType": "string",
          "name": "_publicPromise",
          "type": "string"
        }
      ],
      "name": "RunForChairman",
      "outputs": [],
      "stateMutability": "nonpayable",
      "type": "function"
    },
    {
      "inputs": [
        {
          "internalType": "address",
          "name": "_to",
          "type": "address"
        }
      ],
      "name": "Vote",
      "outputs": [],
      "stateMutability": "nonpayable",
      "type": "function"
    },
    {
      "inputs": [],
      "name": "VoteToAbstain",
      "outputs": [],
      "stateMutability": "nonpayable",
      "type": "function"
    },
    {
      "inputs": [
        {
          "internalType": "uint256",
          "name": "",
          "type": "uint256"
        }
      ],
      "name": "candidates",
      "outputs": [
        {
          "internalType": "string",
          "name": "name",
          "type": "string"
        },
        {
          "internalType": "string",
          "name": "publicPromise",
          "type": "string"
        },
        {
          "internalType": "address",
          "name": "myAddress",
          "type": "address"
        },
        {
          "internalType": "uint256",
          "name": "voteCount",
          "type": "uint256"
        }
      ],
      "stateMutability": "view",
      "type": "function"
    },
    {
      "inputs": [
        {
          "internalType": "uint256",
          "name": "",
          "type": "uint256"
        }
      ],
      "name": "voters",
      "outputs": [
        {
          "internalType": "address",
          "name": "voterAddress",
          "type": "address"
        }
      ],
      "stateMutability": "view",
      "type": "function"
    }
  ],
  "bytecode": "0x6080604052603c6005553480156200001657600080fd5b50620000626040518060400160405280602081526020017f48657265206973206d7920666972737420736d61727420636f6e7472616374218152506200006860201b620015711760201c565b620001fc565b62000108816040516024016200007f9190620001d8565b6040516020818303038152906040527f41304fac000000000000000000000000000000000000000000000000000000007bffffffffffffffffffffffffffffffffffffffffffffffffffffffff19166020820180517bffffffffffffffffffffffffffffffffffffffffffffffffffffffff83818316178352505050506200010b60201b60201c565b50565b60008151905060006a636f6e736f6c652e6c6f679050602083016000808483855afa5050505050565b600081519050919050565b600082825260208201905092915050565b60005b838110156200017057808201518184015260208101905062000153565b8381111562000180576000848401525b50505050565b6000601f19601f8301169050919050565b6000620001a48262000134565b620001b081856200013f565b9350620001c281856020860162000150565b620001cd8162000186565b840191505092915050565b60006020820190508181036000830152620001f4818462000197565b905092915050565b612339806200020c6000396000f3fe608060405234801561001057600080fd5b50600436106100a95760003560e01c80637d0c4014116100715780637d0c401414610145578063ab8e72d614610163578063ce0ee3f01461017f578063d5c547db1461019d578063da58c7d9146101bb578063f5b08346146101eb576100a9565b806313a0c8b7146100ae5780632b590142146100b85780633477ee2e146100d6578063678528f41461010957806379a09c2814610127575b600080fd5b6100b6610207565b005b6100c061046d565b6040516100cd9190611ad2565b60405180910390f35b6100f060048036038101906100eb9190611b3e565b6104ff565b6040516101009493929190611bbb565b60405180910390f35b61011161066f565b60405161011e9190611da2565b60405180910390f35b61012f610852565b60405161013c9190611dc4565b60405180910390f35b61014d6108a3565b60405161015a9190611dc4565b60405180910390f35b61017d60048036038101906101789190611f14565b6108ad565b005b610187610e8f565b6040516101949190611ad2565b60405180910390f35b6101a56110e9565b6040516101b29190611dc4565b60405180910390f35b6101d560048036038101906101d09190611b3e565b611134565b6040516101e29190611f8c565b60405180910390f35b61020560048036038101906102009190611fd3565b61117e565b005b600060075414156102ef57600160405180602001604052803373ffffffffffffffffffffffffffffffffffffffff168152509080600181540180825580915050600190039060005260206000200160009091909190915060008201518160000160006101000a81548173ffffffffffffffffffffffffffffffffffffffff021916908373ffffffffffffffffffffffffffffffffffffffff16021790555050503373ffffffffffffffffffffffffffffffffffffffff167f518c1f05efadcef161fec28440cc5bca6561dcffc2e515fc4a5f7e51935b9b3960405160405180910390a261046b565b600060075490505b600180549050811015610391576001818154811061031857610317612000565b5b9060005260206000200160000160009054906101000a900473ffffffffffffffffffffffffffffffffffffffff1673ffffffffffffffffffffffffffffffffffffffff163373ffffffffffffffffffffffffffffffffffffffff16141561037e57600080fd5b80806103899061205e565b9150506102f7565b50600160405180602001604052803373ffffffffffffffffffffffffffffffffffffffff168152509080600181540180825580915050600190039060005260206000200160009091909190915060008201518160000160006101000a81548173ffffffffffffffffffffffffffffffffffffffff021916908373ffffffffffffffffffffffffffffffffffffffff16021790555050503373ffffffffffffffffffffffffffffffffffffffff167f518c1f05efadcef161fec28440cc5bca6561dcffc2e515fc4a5f7e51935b9b3960405160405180910390a25b565b60606008805461047c906120d6565b80601f01602080910402602001604051908101604052809291908181526020018280546104a8906120d6565b80156104f55780601f106104ca576101008083540402835291602001916104f5565b820191906000526020600020905b8154815290600101906020018083116104d857829003601f168201915b5050505050905090565b6000818154811061050f57600080fd5b9060005260206000209060040201600091509050806000018054610532906120d6565b80601f016020809104026020016040519081016040528092919081815260200182805461055e906120d6565b80156105ab5780601f10610580576101008083540402835291602001916105ab565b820191906000526020600020905b81548152906001019060200180831161058e57829003601f168201915b5050505050908060010180546105c0906120d6565b80601f01602080910402602001604051908101604052809291908181526020018280546105ec906120d6565b80156106395780601f1061060e57610100808354040283529160200191610639565b820191906000526020600020905b81548152906001019060200180831161061c57829003601f168201915b5050505050908060020160009054906101000a900473ffffffffffffffffffffffffffffffffffffffff16908060030154905084565b60606000805480602002602001604051908101604052809291908181526020016000905b8282101561084957838290600052602060002090600402016040518060800160405290816000820180546106c6906120d6565b80601f01602080910402602001604051908101604052809291908181526020018280546106f2906120d6565b801561073f5780601f106107145761010080835404028352916020019161073f565b820191906000526020600020905b81548152906001019060200180831161072257829003601f168201915b50505050508152602001600182018054610758906120d6565b80601f0160208091040260200160405190810160405280929190818152602001828054610784906120d6565b80156107d15780601f106107a6576101008083540402835291602001916107d1565b820191906000526020600020905b8154815290600101906020018083116107b457829003601f168201915b505050505081526020016002820160009054906101000a900473ffffffffffffffffffffffffffffffffffffffff1673ffffffffffffffffffffffffffffffffffffffff1673ffffffffffffffffffffffffffffffffffffffff16815260200160038201548152505081526020019060010190610693565b50505050905090565b60006108986040518060400160405280601b81526020017f4e756d206f662063616e646964617465732e6c656e677468206973000000000081525060008054905061160a565b600080549050905090565b6000600454905090565b60006006541415610b50576108c06116a6565b600060405180608001604052808481526020018381526020013373ffffffffffffffffffffffffffffffffffffffff16815260200160008152509080600181540180825580915050600190039060005260206000209060040201600090919091909150600082015181600001908051906020019061093f92919061187c565b50602082015181600101908051906020019061095c92919061187c565b5060408201518160020160006101000a81548173ffffffffffffffffffffffffffffffffffffffff021916908373ffffffffffffffffffffffffffffffffffffffff16021790555060608201518160030155505060016000805490506109c29190612108565b600260003373ffffffffffffffffffffffffffffffffffffffff1673ffffffffffffffffffffffffffffffffffffffff1681526020019081526020016000208190555060006001600080549050610a199190612108565b81548110610a2a57610a29612000565b5b9060005260206000209060040201600360006001600080549050610a4e9190612108565b81526020019081526020016000206000820181600001908054610a70906120d6565b610a7b929190611902565b506001820181600101908054610a90906120d6565b610a9b929190611902565b506002820160009054906101000a900473ffffffffffffffffffffffffffffffffffffffff168160020160006101000a81548173ffffffffffffffffffffffffffffffffffffffff021916908373ffffffffffffffffffffffffffffffffffffffff160217905550600382015481600301559050507fe8c4efdd68af1a856b9342810ea9e2f1ed012ec5f83cade055983593e0f32ae3338383604051610b439392919061213c565b60405180910390a1610e8b565b600060065490505b600080549050811015610bf6573373ffffffffffffffffffffffffffffffffffffffff1660008281548110610b9057610b8f612000565b5b906000526020600020906004020160020160009054906101000a900473ffffffffffffffffffffffffffffffffffffffff1673ffffffffffffffffffffffffffffffffffffffff161415610be357600080fd5b8080610bee9061205e565b915050610b58565b50610bff6116a6565b600060405180608001604052808481526020018381526020013373ffffffffffffffffffffffffffffffffffffffff168152602001600081525090806001815401808255809150506001900390600052602060002090600402016000909190919091506000820151816000019080519060200190610c7e92919061187c565b506020820151816001019080519060200190610c9b92919061187c565b5060408201518160020160006101000a81548173ffffffffffffffffffffffffffffffffffffffff021916908373ffffffffffffffffffffffffffffffffffffffff1602179055506060820151816003015550506001600080549050610d019190612108565b600260003373ffffffffffffffffffffffffffffffffffffffff1673ffffffffffffffffffffffffffffffffffffffff1681526020019081526020016000208190555060006001600080549050610d589190612108565b81548110610d6957610d68612000565b5b9060005260206000209060040201600360006001600080549050610d8d9190612108565b81526020019081526020016000206000820181600001908054610daf906120d6565b610dba929190611902565b506001820181600101908054610dcf906120d6565b610dda929190611902565b506002820160009054906101000a900473ffffffffffffffffffffffffffffffffffffffff168160020160006101000a81548173ffffffffffffffffffffffffffffffffffffffff021916908373ffffffffffffffffffffffffffffffffffffffff160217905550600382015481600301559050507fe8c4efdd68af1a856b9342810ea9e2f1ed012ec5f83cade055983593e0f32ae3338383604051610e829392919061213c565b60405180910390a15b5050565b6060600080610e9c61171f565b809350819250505060008054905060068190555060018054905060078190555060008181548110610ed057610ecf612000565b5b90600052602060002090600402016000016008908054610eef906120d6565b610efa92919061198f565b507f86d21fda527a6492e3197e289a268ff3830353f451f8cba94fc5e1693d00292f60008281548110610f3057610f2f612000565b5b906000526020600020906004020160000160008381548110610f5557610f54612000565b5b906000526020600020906004020160010184604051610f7693929190612216565b60405180910390a161103460008281548110610f9557610f94612000565b5b90600052602060002090600402016000018054610fb1906120d6565b80601f0160208091040260200160405190810160405280929190818152602001828054610fdd906120d6565b801561102a5780601f10610fff5761010080835404028352916020019161102a565b820191906000526020600020905b81548152906001019060200180831161100d57829003601f168201915b5050505050611571565b6000818154811061104857611047612000565b5b90600052602060002090600402016000018054611064906120d6565b80601f0160208091040260200160405190810160405280929190818152602001828054611090906120d6565b80156110dd5780601f106110b2576101008083540402835291602001916110dd565b820191906000526020600020905b8154815290600101906020018083116110c057829003601f168201915b50505050509250505090565b600061112c6040518060400160405280601981526020017f4e756d206f662073756d4f6643616e646964617465732069730000000000000081525060065461160a565b600654905090565b6001818154811061114457600080fd5b906000526020600020016000915090508060000160009054906101000a900473ffffffffffffffffffffffffffffffffffffffff16905081565b6000600754141561132c576000600160405180602001604052803373ffffffffffffffffffffffffffffffffffffffff168152509080600181540180825580915050600190039060005260206000200160009091909190915060008201518160000160006101000a81548173ffffffffffffffffffffffffffffffffffffffff021916908373ffffffffffffffffffffffffffffffffffffffff1602179055505050600260008373ffffffffffffffffffffffffffffffffffffffff1673ffffffffffffffffffffffffffffffffffffffff1681526020019081526020016000205490506000818154811061127657611275612000565b5b906000526020600020906004020160030160008154809291906112989061205e565b91905055508173ffffffffffffffffffffffffffffffffffffffff163373ffffffffffffffffffffffffffffffffffffffff167fb4d4a20f077308ce4bfbf1e397fc2d4ab558580008c17725d3f31040ca35fe0860008481548110611300576112ff612000565b5b906000526020600020906004020160000160405161131e919061225b565b60405180910390a35061156e565b600060075490505b6001805490508110156113ce576001818154811061135557611354612000565b5b9060005260206000200160000160009054906101000a900473ffffffffffffffffffffffffffffffffffffffff1673ffffffffffffffffffffffffffffffffffffffff163373ffffffffffffffffffffffffffffffffffffffff1614156113bb57600080fd5b80806113c69061205e565b915050611334565b506000600160405180602001604052803373ffffffffffffffffffffffffffffffffffffffff168152509080600181540180825580915050600190039060005260206000200160009091909190915060008201518160000160006101000a81548173ffffffffffffffffffffffffffffffffffffffff021916908373ffffffffffffffffffffffffffffffffffffffff1602179055505050600260008373ffffffffffffffffffffffffffffffffffffffff1673ffffffffffffffffffffffffffffffffffffffff168152602001908152602001600020549050600081815481106114bc576114bb612000565b5b906000526020600020906004020160030160008154809291906114de9061205e565b91905055508173ffffffffffffffffffffffffffffffffffffffff163373ffffffffffffffffffffffffffffffffffffffff167fb4d4a20f077308ce4bfbf1e397fc2d4ab558580008c17725d3f31040ca35fe086000848154811061154657611545612000565b5b9060005260206000209060040201600001604051611564919061225b565b60405180910390a3505b50565b611607816040516024016115859190611ad2565b6040516020818303038152906040527f41304fac000000000000000000000000000000000000000000000000000000007bffffffffffffffffffffffffffffffffffffffffffffffffffffffff19166020820180517bffffffffffffffffffffffffffffffffffffffffffffffffffffffff83818316178352505050506117ba565b50565b6116a2828260405160240161162092919061227d565b6040516020818303038152906040527fb60e72cc000000000000000000000000000000000000000000000000000000007bffffffffffffffffffffffffffffffffffffffffffffffffffffffff19166020820180517bffffffffffffffffffffffffffffffffffffffffffffffffffffffff83818316178352505050506117ba565b5050565b60006006546000805490506116bb9190612108565b146116c557600080fd5b600554426116d391906122ad565b6004819055506116e46004546117e3565b7f95cf4c7d1bec19e479bd25a75ffad3a080121f5e506dfe6dd1f726b3a06ae8cf6004546040516117159190611dc4565b60405180910390a1565b600080600060065490505b6000805490508110156117a357816000828154811061174c5761174b612000565b5b9060005260206000209060040201600301541115611790576000818154811061177857611777612000565b5b90600052602060002090600402016003015491508092505b808061179b9061205e565b91505061172a565b506117ad826117e3565b6117b6816117e3565b9091565b60008151905060006a636f6e736f6c652e6c6f679050602083016000808483855afa5050505050565b611879816040516024016117f79190611dc4565b6040516020818303038152906040527ff82c50f1000000000000000000000000000000000000000000000000000000007bffffffffffffffffffffffffffffffffffffffffffffffffffffffff19166020820180517bffffffffffffffffffffffffffffffffffffffffffffffffffffffff83818316178352505050506117ba565b50565b828054611888906120d6565b90600052602060002090601f0160209004810192826118aa57600085556118f1565b82601f106118c357805160ff19168380011785556118f1565b828001600101855582156118f1579182015b828111156118f05782518255916020019190600101906118d5565b5b5090506118fe9190611a1c565b5090565b82805461190e906120d6565b90600052602060002090601f016020900481019282611930576000855561197e565b82601f10611941578054855561197e565b8280016001018555821561197e57600052602060002091601f016020900482015b8281111561197d578254825591600101919060010190611962565b5b50905061198b9190611a1c565b5090565b82805461199b906120d6565b90600052602060002090601f0160209004810192826119bd5760008555611a0b565b82601f106119ce5780548555611a0b565b82800160010185558215611a0b57600052602060002091601f016020900482015b82811115611a0a5782548255916001019190600101906119ef565b5b509050611a189190611a1c565b5090565b5b80821115611a35576000816000905550600101611a1d565b5090565b600081519050919050565b600082825260208201905092915050565b60005b83811015611a73578082015181840152602081019050611a58565b83811115611a82576000848401525b50505050565b6000601f19601f8301169050919050565b6000611aa482611a39565b611aae8185611a44565b9350611abe818560208601611a55565b611ac781611a88565b840191505092915050565b60006020820190508181036000830152611aec8184611a99565b905092915050565b6000604051905090565b600080fd5b600080fd5b6000819050919050565b611b1b81611b08565b8114611b2657600080fd5b50565b600081359050611b3881611b12565b92915050565b600060208284031215611b5457611b53611afe565b5b6000611b6284828501611b29565b91505092915050565b600073ffffffffffffffffffffffffffffffffffffffff82169050919050565b6000611b9682611b6b565b9050919050565b611ba681611b8b565b82525050565b611bb581611b08565b82525050565b60006080820190508181036000830152611bd58187611a99565b90508181036020830152611be98186611a99565b9050611bf86040830185611b9d565b611c056060830184611bac565b95945050505050565b600081519050919050565b600082825260208201905092915050565b6000819050602082019050919050565b600082825260208201905092915050565b6000611c5682611a39565b611c608185611c3a565b9350611c70818560208601611a55565b611c7981611a88565b840191505092915050565b611c8d81611b8b565b82525050565b611c9c81611b08565b82525050565b60006080830160008301518482036000860152611cbf8282611c4b565b91505060208301518482036020860152611cd98282611c4b565b9150506040830151611cee6040860182611c84565b506060830151611d016060860182611c93565b508091505092915050565b6000611d188383611ca2565b905092915050565b6000602082019050919050565b6000611d3882611c0e565b611d428185611c19565b935083602082028501611d5485611c2a565b8060005b85811015611d905784840389528151611d718582611d0c565b9450611d7c83611d20565b925060208a01995050600181019050611d58565b50829750879550505050505092915050565b60006020820190508181036000830152611dbc8184611d2d565b905092915050565b6000602082019050611dd96000830184611bac565b92915050565b600080fd5b600080fd5b7f4e487b7100000000000000000000000000000000000000000000000000000000600052604160045260246000fd5b611e2182611a88565b810181811067ffffffffffffffff82111715611e4057611e3f611de9565b5b80604052505050565b6000611e53611af4565b9050611e5f8282611e18565b919050565b600067ffffffffffffffff821115611e7f57611e7e611de9565b5b611e8882611a88565b9050602081019050919050565b82818337600083830152505050565b6000611eb7611eb284611e64565b611e49565b905082815260208101848484011115611ed357611ed2611de4565b5b611ede848285611e95565b509392505050565b600082601f830112611efb57611efa611ddf565b5b8135611f0b848260208601611ea4565b91505092915050565b60008060408385031215611f2b57611f2a611afe565b5b600083013567ffffffffffffffff811115611f4957611f48611b03565b5b611f5585828601611ee6565b925050602083013567ffffffffffffffff811115611f7657611f75611b03565b5b611f8285828601611ee6565b9150509250929050565b6000602082019050611fa16000830184611b9d565b92915050565b611fb081611b8b565b8114611fbb57600080fd5b50565b600081359050611fcd81611fa7565b92915050565b600060208284031215611fe957611fe8611afe565b5b6000611ff784828501611fbe565b91505092915050565b7f4e487b7100000000000000000000000000000000000000000000000000000000600052603260045260246000fd5b7f4e487b7100000000000000000000000000000000000000000000000000000000600052601160045260246000fd5b600061206982611b08565b91507fffffffffffffffffffffffffffffffffffffffffffffffffffffffffffffffff82141561209c5761209b61202f565b5b600182019050919050565b7f4e487b7100000000000000000000000000000000000000000000000000000000600052602260045260246000fd5b600060028204905060018216806120ee57607f821691505b60208210811415612102576121016120a7565b5b50919050565b600061211382611b08565b915061211e83611b08565b9250828210156121315761213061202f565b5b828203905092915050565b60006060820190506121516000830186611b9d565b81810360208301526121638185611a99565b905081810360408301526121778184611a99565b9050949350505050565b60008190508160005260206000209050919050565b600081546121a3816120d6565b6121ad8186611a44565b945060018216600081146121c857600181146121da5761220d565b60ff198316865260208601935061220d565b6121e385612181565b60005b83811015612205578154818901526001820191506020810190506121e6565b808801955050505b50505092915050565b600060608201905081810360008301526122308186612196565b905081810360208301526122448185612196565b90506122536040830184611bac565b949350505050565b600060208201905081810360008301526122758184612196565b905092915050565b600060408201905081810360008301526122978185611a99565b90506122a66020830184611bac565b9392505050565b60006122b882611b08565b91506122c383611b08565b9250827fffffffffffffffffffffffffffffffffffffffffffffffffffffffffffffffff038211156122f8576122f761202f565b5b82820190509291505056fea2646970667358221220856869cdeeb9c9b9becd2c69ff7a88ec999bd461ba37086087f2669223c7d30764736f6c63430008090033",
  "linkReferences": {},
  "deployedLinkReferences": {}
}