{
  "_format": "hh-sol-artifact-1",
  "contractName": "ElectionFactory",
  "sourceName": "contracts/ElectionFactory.sol",
  "abi": [
    {
      "inputs": [],
      "stateMutability": "nonpayable",
      "type": "constructor"
    },
    {
      "anonymous": false,
      "inputs": [
        {
          "indexed": false,
          "internalType": "address",
          "name": "candidateAddress",
          "type": "address"
        },
        {
          "indexed": false,
          "internalType": "string",
          "name": "name",
          "type": "string"
        },
        {
          "indexed": false,
          "internalType": "string",
          "name": "publicPromise",
          "type": "string"
        }
      ],
      "name": "NewCandidate",
      "type": "event"
    },
    {
      "anonymous": false,
      "inputs": [
        {
          "indexed": false,
          "internalType": "string",
          "name": "newChairmanName",
          "type": "string"
        },
        {
          "indexed": false,
          "internalType": "string",
          "name": "publicPromise",
          "type": "string"
        },
        {
          "indexed": false,
          "internalType": "uint256",
          "name": "voteCount",
          "type": "uint256"
        }
      ],
      "name": "NewChairman",
      "type": "event"
    },
    {
      "anonymous": false,
      "inputs": [
        {
          "indexed": false,
          "internalType": "uint256",
          "name": "electionPeriod",
          "type": "uint256"
        }
      ],
      "name": "StartNewElection",
      "type": "event"
    },
    {
      "anonymous": false,
      "inputs": [
        {
          "indexed": true,
          "internalType": "address",
          "name": "from",
          "type": "address"
        }
      ],
      "name": "VoteAbstain",
      "type": "event"
    },
    {
      "anonymous": false,
      "inputs": [
        {
          "indexed": true,
          "internalType": "address",
          "name": "from",
          "type": "address"
        },
        {
          "indexed": true,
          "internalType": "address",
          "name": "to",
          "type": "address"
        },
        {
          "indexed": false,
          "internalType": "string",
          "name": "candidateName",
          "type": "string"
        }
      ],
      "name": "VoteSomeone",
      "type": "event"
    },
    {
      "inputs": [],
      "name": "FinishElection",
      "outputs": [
        {
          "internalType": "string",
          "name": "",
          "type": "string"
        }
      ],
      "stateMutability": "nonpayable",
      "type": "function"
    },
    {
      "inputs": [],
      "name": "GetAllCandidates",
      "outputs": [
        {
          "components": [
            {
              "internalType": "string",
              "name": "name",
              "type": "string"
            },
            {
              "internalType": "string",
              "name": "publicPromise",
              "type": "string"
            },
            {
              "internalType": "address",
              "name": "myAddress",
              "type": "address"
            },
            {
              "internalType": "uint256",
              "name": "voteCount",
              "type": "uint256"
            }
          ],
          "internalType": "struct ElectionFactory.Candidate[]",
          "name": "",
          "type": "tuple[]"
        }
      ],
      "stateMutability": "view",
      "type": "function"
    },
    {
      "inputs": [],
      "name": "GetElectionPeriod",
      "outputs": [
        {
          "internalType": "uint256",
          "name": "",
          "type": "uint256"
        }
      ],
      "stateMutability": "view",
      "type": "function"
    },
    {
      "inputs": [],
      "name": "GetNewChairman",
      "outputs": [
        {
          "internalType": "string",
          "name": "",
          "type": "string"
        }
      ],
      "stateMutability": "view",
      "type": "function"
    },
    {
      "inputs": [],
      "name": "GetNumOfCandidates",
      "outputs": [
        {
          "internalType": "uint256",
          "name": "",
          "type": "uint256"
        }
      ],
      "stateMutability": "view",
      "type": "function"
    },
    {
      "inputs": [],
      "name": "GetSumOfCandidates",
      "outputs": [
        {
          "internalType": "uint256",
          "name": "",
          "type": "uint256"
        }
      ],
      "stateMutability": "view",
      "type": "function"
    },
    {
      "inputs": [
        {
          "internalType": "string",
          "name": "_name",
          "type": "string"
        },
        {
          "internalType": "string",
          "name": "_publicPromise",
          "type": "string"
        }
      ],
      "name": "RunForChairman",
      "outputs": [],
      "stateMutability": "nonpayable",
      "type": "function"
    },
    {
      "inputs": [
        {
          "internalType": "address",
          "name": "_to",
          "type": "address"
        }
      ],
      "name": "Vote",
      "outputs": [],
      "stateMutability": "nonpayable",
      "type": "function"
    },
    {
      "inputs": [],
      "name": "VoteToAbstain",
      "outputs": [],
      "stateMutability": "nonpayable",
      "type": "function"
    },
    {
      "inputs": [
        {
          "internalType": "uint256",
          "name": "",
          "type": "uint256"
        }
      ],
      "name": "candidates",
      "outputs": [
        {
          "internalType": "string",
          "name": "name",
          "type": "string"
        },
        {
          "internalType": "string",
          "name": "publicPromise",
          "type": "string"
        },
        {
          "internalType": "address",
          "name": "myAddress",
          "type": "address"
        },
        {
          "internalType": "uint256",
          "name": "voteCount",
          "type": "uint256"
        }
      ],
      "stateMutability": "view",
      "type": "function"
    },
    {
      "inputs": [
        {
          "internalType": "uint256",
          "name": "",
          "type": "uint256"
        }
      ],
      "name": "voters",
      "outputs": [
        {
          "internalType": "address",
          "name": "voterAddress",
          "type": "address"
        }
      ],
      "stateMutability": "view",
      "type": "function"
    }
  ],
  "bytecode": "0x6080604052603c6005553480156200001657600080fd5b50620000626040518060400160405280602081526020017f48657265206973206d7920666972737420736d61727420636f6e7472616374218152506200006860201b620010351760201c565b620001fc565b62000108816040516024016200007f9190620001d8565b6040516020818303038152906040527f41304fac000000000000000000000000000000000000000000000000000000007bffffffffffffffffffffffffffffffffffffffffffffffffffffffff19166020820180517bffffffffffffffffffffffffffffffffffffffffffffffffffffffff83818316178352505050506200010b60201b60201c565b50565b60008151905060006a636f6e736f6c652e6c6f679050602083016000808483855afa5050505050565b600081519050919050565b600082825260208201905092915050565b60005b838110156200017057808201518184015260208101905062000153565b8381111562000180576000848401525b50505050565b6000601f19601f8301169050919050565b6000620001a48262000134565b620001b081856200013f565b9350620001c281856020860162000150565b620001cd8162000186565b840191505092915050565b60006020820190508181036000830152620001f4818462000197565b905092915050565b611dfd806200020c6000396000f3fe608060405234801561001057600080fd5b50600436106100a95760003560e01c80637d0c4014116100715780637d0c401414610145578063ab8e72d614610163578063ce0ee3f01461017f578063d5c547db1461019d578063da58c7d9146101bb578063f5b08346146101eb576100a9565b806313a0c8b7146100ae5780632b590142146100b85780633477ee2e146100d6578063678528f41461010957806379a09c2814610127575b600080fd5b6100b6610207565b005b6100c0610384565b6040516100cd9190611596565b60405180910390f35b6100f060048036038101906100eb9190611602565b610416565b604051610100949392919061167f565b60405180910390f35b610111610586565b60405161011e9190611866565b60405180910390f35b61012f610769565b60405161013c9190611888565b60405180910390f35b61014d6107ba565b60405161015a9190611888565b60405180910390f35b61017d600480360381019061017891906119d8565b6107c4565b005b610187610b02565b6040516101949190611596565b60405180910390f35b6101a5610d5c565b6040516101b29190611888565b60405180910390f35b6101d560048036038101906101d09190611602565b610da7565b6040516101e29190611a50565b60405180910390f35b61020560048036038101906102009190611a97565b610df1565b005b600060075490505b6001805490508110156102a957600181815481106102305761022f611ac4565b5b9060005260206000200160000160009054906101000a900473ffffffffffffffffffffffffffffffffffffffff1673ffffffffffffffffffffffffffffffffffffffff163373ffffffffffffffffffffffffffffffffffffffff16141561029657600080fd5b80806102a190611b22565b91505061020f565b50600160405180602001604052803373ffffffffffffffffffffffffffffffffffffffff168152509080600181540180825580915050600190039060005260206000200160009091909190915060008201518160000160006101000a81548173ffffffffffffffffffffffffffffffffffffffff021916908373ffffffffffffffffffffffffffffffffffffffff16021790555050503373ffffffffffffffffffffffffffffffffffffffff167f518c1f05efadcef161fec28440cc5bca6561dcffc2e515fc4a5f7e51935b9b3960405160405180910390a2565b60606008805461039390611b9a565b80601f01602080910402602001604051908101604052809291908181526020018280546103bf90611b9a565b801561040c5780601f106103e15761010080835404028352916020019161040c565b820191906000526020600020905b8154815290600101906020018083116103ef57829003601f168201915b5050505050905090565b6000818154811061042657600080fd5b906000526020600020906004020160009150905080600001805461044990611b9a565b80601f016020809104026020016040519081016040528092919081815260200182805461047590611b9a565b80156104c25780601f10610497576101008083540402835291602001916104c2565b820191906000526020600020905b8154815290600101906020018083116104a557829003601f168201915b5050505050908060010180546104d790611b9a565b80601f016020809104026020016040519081016040528092919081815260200182805461050390611b9a565b80156105505780601f1061052557610100808354040283529160200191610550565b820191906000526020600020905b81548152906001019060200180831161053357829003601f168201915b5050505050908060020160009054906101000a900473ffffffffffffffffffffffffffffffffffffffff16908060030154905084565b60606000805480602002602001604051908101604052809291908181526020016000905b8282101561076057838290600052602060002090600402016040518060800160405290816000820180546105dd90611b9a565b80601f016020809104026020016040519081016040528092919081815260200182805461060990611b9a565b80156106565780601f1061062b57610100808354040283529160200191610656565b820191906000526020600020905b81548152906001019060200180831161063957829003601f168201915b5050505050815260200160018201805461066f90611b9a565b80601f016020809104026020016040519081016040528092919081815260200182805461069b90611b9a565b80156106e85780601f106106bd576101008083540402835291602001916106e8565b820191906000526020600020905b8154815290600101906020018083116106cb57829003601f168201915b505050505081526020016002820160009054906101000a900473ffffffffffffffffffffffffffffffffffffffff1673ffffffffffffffffffffffffffffffffffffffff1673ffffffffffffffffffffffffffffffffffffffff168152602001600382015481525050815260200190600101906105aa565b50505050905090565b60006107af6040518060400160405280601b81526020017f4e756d206f662063616e646964617465732e6c656e67746820697300000000008152506000805490506110ce565b600080549050905090565b6000600454905090565b600060065490505b60008054905081101561086a573373ffffffffffffffffffffffffffffffffffffffff166000828154811061080457610803611ac4565b5b906000526020600020906004020160020160009054906101000a900473ffffffffffffffffffffffffffffffffffffffff1673ffffffffffffffffffffffffffffffffffffffff16141561085757600080fd5b808061086290611b22565b9150506107cc565b5061087361116a565b600060405180608001604052808481526020018381526020013373ffffffffffffffffffffffffffffffffffffffff1681526020016000815250908060018154018082558091505060019003906000526020600020906004020160009091909190915060008201518160000190805190602001906108f2929190611340565b50602082015181600101908051906020019061090f929190611340565b5060408201518160020160006101000a81548173ffffffffffffffffffffffffffffffffffffffff021916908373ffffffffffffffffffffffffffffffffffffffff16021790555060608201518160030155505060016000805490506109759190611bcc565b600260003373ffffffffffffffffffffffffffffffffffffffff1673ffffffffffffffffffffffffffffffffffffffff16815260200190815260200160002081905550600060016000805490506109cc9190611bcc565b815481106109dd576109dc611ac4565b5b9060005260206000209060040201600360006001600080549050610a019190611bcc565b81526020019081526020016000206000820181600001908054610a2390611b9a565b610a2e9291906113c6565b506001820181600101908054610a4390611b9a565b610a4e9291906113c6565b506002820160009054906101000a900473ffffffffffffffffffffffffffffffffffffffff168160020160006101000a81548173ffffffffffffffffffffffffffffffffffffffff021916908373ffffffffffffffffffffffffffffffffffffffff160217905550600382015481600301559050507fe8c4efdd68af1a856b9342810ea9e2f1ed012ec5f83cade055983593e0f32ae3338383604051610af693929190611c00565b60405180910390a15050565b6060600080610b0f6111e3565b809350819250505060008054905060068190555060018054905060078190555060008181548110610b4357610b42611ac4565b5b90600052602060002090600402016000016008908054610b6290611b9a565b610b6d929190611453565b507f86d21fda527a6492e3197e289a268ff3830353f451f8cba94fc5e1693d00292f60008281548110610ba357610ba2611ac4565b5b906000526020600020906004020160000160008381548110610bc857610bc7611ac4565b5b906000526020600020906004020160010184604051610be993929190611cda565b60405180910390a1610ca760008281548110610c0857610c07611ac4565b5b90600052602060002090600402016000018054610c2490611b9a565b80601f0160208091040260200160405190810160405280929190818152602001828054610c5090611b9a565b8015610c9d5780601f10610c7257610100808354040283529160200191610c9d565b820191906000526020600020905b815481529060010190602001808311610c8057829003601f168201915b5050505050611035565b60008181548110610cbb57610cba611ac4565b5b90600052602060002090600402016000018054610cd790611b9a565b80601f0160208091040260200160405190810160405280929190818152602001828054610d0390611b9a565b8015610d505780601f10610d2557610100808354040283529160200191610d50565b820191906000526020600020905b815481529060010190602001808311610d3357829003601f168201915b50505050509250505090565b6000610d9f6040518060400160405280601981526020017f4e756d206f662073756d4f6643616e64696461746573206973000000000000008152506006546110ce565b600654905090565b60018181548110610db757600080fd5b906000526020600020016000915090508060000160009054906101000a900473ffffffffffffffffffffffffffffffffffffffff16905081565b600060075490505b600180549050811015610e935760018181548110610e1a57610e19611ac4565b5b9060005260206000200160000160009054906101000a900473ffffffffffffffffffffffffffffffffffffffff1673ffffffffffffffffffffffffffffffffffffffff163373ffffffffffffffffffffffffffffffffffffffff161415610e8057600080fd5b8080610e8b90611b22565b915050610df9565b506000600160405180602001604052803373ffffffffffffffffffffffffffffffffffffffff168152509080600181540180825580915050600190039060005260206000200160009091909190915060008201518160000160006101000a81548173ffffffffffffffffffffffffffffffffffffffff021916908373ffffffffffffffffffffffffffffffffffffffff1602179055505050600260008373ffffffffffffffffffffffffffffffffffffffff1673ffffffffffffffffffffffffffffffffffffffff16815260200190815260200160002054905060008181548110610f8157610f80611ac4565b5b90600052602060002090600402016003016000815480929190610fa390611b22565b91905055508173ffffffffffffffffffffffffffffffffffffffff163373ffffffffffffffffffffffffffffffffffffffff167fb4d4a20f077308ce4bfbf1e397fc2d4ab558580008c17725d3f31040ca35fe086000848154811061100b5761100a611ac4565b5b90600052602060002090600402016000016040516110299190611d1f565b60405180910390a35050565b6110cb816040516024016110499190611596565b6040516020818303038152906040527f41304fac000000000000000000000000000000000000000000000000000000007bffffffffffffffffffffffffffffffffffffffffffffffffffffffff19166020820180517bffffffffffffffffffffffffffffffffffffffffffffffffffffffff838183161783525050505061127e565b50565b61116682826040516024016110e4929190611d41565b6040516020818303038152906040527fb60e72cc000000000000000000000000000000000000000000000000000000007bffffffffffffffffffffffffffffffffffffffffffffffffffffffff19166020820180517bffffffffffffffffffffffffffffffffffffffffffffffffffffffff838183161783525050505061127e565b5050565b600060065460008054905061117f9190611bcc565b1461118957600080fd5b600554426111979190611d71565b6004819055506111a86004546112a7565b7f95cf4c7d1bec19e479bd25a75ffad3a080121f5e506dfe6dd1f726b3a06ae8cf6004546040516111d99190611888565b60405180910390a1565b600080600060065490505b6000805490508110156112675781600082815481106112105761120f611ac4565b5b9060005260206000209060040201600301541115611254576000818154811061123c5761123b611ac4565b5b90600052602060002090600402016003015491508092505b808061125f90611b22565b9150506111ee565b50611271826112a7565b61127a816112a7565b9091565b60008151905060006a636f6e736f6c652e6c6f679050602083016000808483855afa5050505050565b61133d816040516024016112bb9190611888565b6040516020818303038152906040527ff82c50f1000000000000000000000000000000000000000000000000000000007bffffffffffffffffffffffffffffffffffffffffffffffffffffffff19166020820180517bffffffffffffffffffffffffffffffffffffffffffffffffffffffff838183161783525050505061127e565b50565b82805461134c90611b9a565b90600052602060002090601f01602090048101928261136e57600085556113b5565b82601f1061138757805160ff19168380011785556113b5565b828001600101855582156113b5579182015b828111156113b4578251825591602001919060010190611399565b5b5090506113c291906114e0565b5090565b8280546113d290611b9a565b90600052602060002090601f0160209004810192826113f45760008555611442565b82601f106114055780548555611442565b8280016001018555821561144257600052602060002091601f016020900482015b82811115611441578254825591600101919060010190611426565b5b50905061144f91906114e0565b5090565b82805461145f90611b9a565b90600052602060002090601f01602090048101928261148157600085556114cf565b82601f1061149257805485556114cf565b828001600101855582156114cf57600052602060002091601f016020900482015b828111156114ce5782548255916001019190600101906114b3565b5b5090506114dc91906114e0565b5090565b5b808211156114f95760008160009055506001016114e1565b5090565b600081519050919050565b600082825260208201905092915050565b60005b8381101561153757808201518184015260208101905061151c565b83811115611546576000848401525b50505050565b6000601f19601f8301169050919050565b6000611568826114fd565b6115728185611508565b9350611582818560208601611519565b61158b8161154c565b840191505092915050565b600060208201905081810360008301526115b0818461155d565b905092915050565b6000604051905090565b600080fd5b600080fd5b6000819050919050565b6115df816115cc565b81146115ea57600080fd5b50565b6000813590506115fc816115d6565b92915050565b600060208284031215611618576116176115c2565b5b6000611626848285016115ed565b91505092915050565b600073ffffffffffffffffffffffffffffffffffffffff82169050919050565b600061165a8261162f565b9050919050565b61166a8161164f565b82525050565b611679816115cc565b82525050565b60006080820190508181036000830152611699818761155d565b905081810360208301526116ad818661155d565b90506116bc6040830185611661565b6116c96060830184611670565b95945050505050565b600081519050919050565b600082825260208201905092915050565b6000819050602082019050919050565b600082825260208201905092915050565b600061171a826114fd565b61172481856116fe565b9350611734818560208601611519565b61173d8161154c565b840191505092915050565b6117518161164f565b82525050565b611760816115cc565b82525050565b60006080830160008301518482036000860152611783828261170f565b9150506020830151848203602086015261179d828261170f565b91505060408301516117b26040860182611748565b5060608301516117c56060860182611757565b508091505092915050565b60006117dc8383611766565b905092915050565b6000602082019050919050565b60006117fc826116d2565b61180681856116dd565b935083602082028501611818856116ee565b8060005b85811015611854578484038952815161183585826117d0565b9450611840836117e4565b925060208a0199505060018101905061181c565b50829750879550505050505092915050565b6000602082019050818103600083015261188081846117f1565b905092915050565b600060208201905061189d6000830184611670565b92915050565b600080fd5b600080fd5b7f4e487b7100000000000000000000000000000000000000000000000000000000600052604160045260246000fd5b6118e58261154c565b810181811067ffffffffffffffff82111715611904576119036118ad565b5b80604052505050565b60006119176115b8565b905061192382826118dc565b919050565b600067ffffffffffffffff821115611943576119426118ad565b5b61194c8261154c565b9050602081019050919050565b82818337600083830152505050565b600061197b61197684611928565b61190d565b905082815260208101848484011115611997576119966118a8565b5b6119a2848285611959565b509392505050565b600082601f8301126119bf576119be6118a3565b5b81356119cf848260208601611968565b91505092915050565b600080604083850312156119ef576119ee6115c2565b5b600083013567ffffffffffffffff811115611a0d57611a0c6115c7565b5b611a19858286016119aa565b925050602083013567ffffffffffffffff811115611a3a57611a396115c7565b5b611a46858286016119aa565b9150509250929050565b6000602082019050611a656000830184611661565b92915050565b611a748161164f565b8114611a7f57600080fd5b50565b600081359050611a9181611a6b565b92915050565b600060208284031215611aad57611aac6115c2565b5b6000611abb84828501611a82565b91505092915050565b7f4e487b7100000000000000000000000000000000000000000000000000000000600052603260045260246000fd5b7f4e487b7100000000000000000000000000000000000000000000000000000000600052601160045260246000fd5b6000611b2d826115cc565b91507fffffffffffffffffffffffffffffffffffffffffffffffffffffffffffffffff821415611b6057611b5f611af3565b5b600182019050919050565b7f4e487b7100000000000000000000000000000000000000000000000000000000600052602260045260246000fd5b60006002820490506001821680611bb257607f821691505b60208210811415611bc657611bc5611b6b565b5b50919050565b6000611bd7826115cc565b9150611be2836115cc565b925082821015611bf557611bf4611af3565b5b828203905092915050565b6000606082019050611c156000830186611661565b8181036020830152611c27818561155d565b90508181036040830152611c3b818461155d565b9050949350505050565b60008190508160005260206000209050919050565b60008154611c6781611b9a565b611c718186611508565b94506001821660008114611c8c5760018114611c9e57611cd1565b60ff1983168652602086019350611cd1565b611ca785611c45565b60005b83811015611cc957815481890152600182019150602081019050611caa565b808801955050505b50505092915050565b60006060820190508181036000830152611cf48186611c5a565b90508181036020830152611d088185611c5a565b9050611d176040830184611670565b949350505050565b60006020820190508181036000830152611d398184611c5a565b905092915050565b60006040820190508181036000830152611d5b818561155d565b9050611d6a6020830184611670565b9392505050565b6000611d7c826115cc565b9150611d87836115cc565b9250827fffffffffffffffffffffffffffffffffffffffffffffffffffffffffffffffff03821115611dbc57611dbb611af3565b5b82820190509291505056fea26469706673582212208d36eb5f1256774efd76cf5df3b4357f36831b27e1e539deb031833fc7a8f44964736f6c63430008090033",
  "linkReferences": {},
  "deployedLinkReferences": {}
}