{
  "_format": "hh-sol-artifact-1",
  "contractName": "ElectionFactory",
  "sourceName": "contracts/ElectionFactory.sol",
  "abi": [
    {
      "inputs": [],
      "stateMutability": "nonpayable",
      "type": "constructor"
    },
    {
      "anonymous": false,
      "inputs": [
        {
          "indexed": false,
          "internalType": "string",
          "name": "newChairmanName",
          "type": "string"
        },
        {
          "indexed": false,
          "internalType": "uint256",
          "name": "voteCount",
          "type": "uint256"
        }
      ],
      "name": "ElectionFinished",
      "type": "event"
    },
    {
      "anonymous": false,
      "inputs": [
        {
          "indexed": false,
          "internalType": "string",
          "name": "name",
          "type": "string"
        },
        {
          "indexed": false,
          "internalType": "string",
          "name": "publicPromise",
          "type": "string"
        }
      ],
      "name": "NewCandidateRanFor",
      "type": "event"
    },
    {
      "anonymous": false,
      "inputs": [
        {
          "indexed": false,
          "internalType": "uint256",
          "name": "electionPeriod",
          "type": "uint256"
        }
      ],
      "name": "NewElectionStarted",
      "type": "event"
    },
    {
      "anonymous": false,
      "inputs": [
        {
          "indexed": false,
          "internalType": "string",
          "name": "name",
          "type": "string"
        }
      ],
      "name": "VotedSomeone",
      "type": "event"
    },
    {
      "inputs": [
        {
          "internalType": "uint256",
          "name": "candidateId",
          "type": "uint256"
        }
      ],
      "name": "CheckCandidateInfo",
      "outputs": [
        {
          "components": [
            {
              "internalType": "string",
              "name": "name",
              "type": "string"
            },
            {
              "internalType": "string",
              "name": "publicPromise",
              "type": "string"
            },
            {
              "internalType": "address",
              "name": "myAddress",
              "type": "address"
            },
            {
              "internalType": "uint256",
              "name": "voteCount",
              "type": "uint256"
            }
          ],
          "internalType": "struct ElectionFactory.Candidate",
          "name": "",
          "type": "tuple"
        }
      ],
      "stateMutability": "view",
      "type": "function"
    },
    {
      "inputs": [],
      "name": "FinishElection",
      "outputs": [
        {
          "internalType": "string",
          "name": "",
          "type": "string"
        }
      ],
      "stateMutability": "nonpayable",
      "type": "function"
    },
    {
      "inputs": [],
      "name": "GetFinishTime",
      "outputs": [
        {
          "internalType": "uint256",
          "name": "",
          "type": "uint256"
        }
      ],
      "stateMutability": "view",
      "type": "function"
    },
    {
      "inputs": [],
      "name": "GetNumOfCandidates",
      "outputs": [
        {
          "internalType": "uint256",
          "name": "",
          "type": "uint256"
        }
      ],
      "stateMutability": "view",
      "type": "function"
    },
    {
      "inputs": [],
      "name": "GetSumOfCandidates",
      "outputs": [
        {
          "internalType": "uint256",
          "name": "",
          "type": "uint256"
        }
      ],
      "stateMutability": "view",
      "type": "function"
    },
    {
      "inputs": [
        {
          "internalType": "string",
          "name": "_name",
          "type": "string"
        },
        {
          "internalType": "string",
          "name": "_publicPromise",
          "type": "string"
        }
      ],
      "name": "RunForChairman",
      "outputs": [],
      "stateMutability": "nonpayable",
      "type": "function"
    },
    {
      "inputs": [
        {
          "internalType": "address",
          "name": "_candidateAddress",
          "type": "address"
        }
      ],
      "name": "Vote",
      "outputs": [],
      "stateMutability": "nonpayable",
      "type": "function"
    },
    {
      "inputs": [],
      "name": "VoteToAbstain",
      "outputs": [],
      "stateMutability": "nonpayable",
      "type": "function"
    },
    {
      "inputs": [
        {
          "internalType": "uint256",
          "name": "",
          "type": "uint256"
        }
      ],
      "name": "candidates",
      "outputs": [
        {
          "internalType": "string",
          "name": "name",
          "type": "string"
        },
        {
          "internalType": "string",
          "name": "publicPromise",
          "type": "string"
        },
        {
          "internalType": "address",
          "name": "myAddress",
          "type": "address"
        },
        {
          "internalType": "uint256",
          "name": "voteCount",
          "type": "uint256"
        }
      ],
      "stateMutability": "view",
      "type": "function"
    },
    {
      "inputs": [
        {
          "internalType": "uint256",
          "name": "",
          "type": "uint256"
        }
      ],
      "name": "voters",
      "outputs": [
        {
          "internalType": "address",
          "name": "voterAddress",
          "type": "address"
        }
      ],
      "stateMutability": "view",
      "type": "function"
    }
  ],
  "bytecode": "0x6080604052603c6005553480156200001657600080fd5b50620000626040518060400160405280602081526020017f48657265206973206d7920666972737420736d61727420636f6e7472616374218152506200006860201b620013a51760201c565b620001fc565b62000108816040516024016200007f9190620001d8565b6040516020818303038152906040527f41304fac000000000000000000000000000000000000000000000000000000007bffffffffffffffffffffffffffffffffffffffffffffffffffffffff19166020820180517bffffffffffffffffffffffffffffffffffffffffffffffffffffffff83818316178352505050506200010b60201b60201c565b50565b60008151905060006a636f6e736f6c652e6c6f679050602083016000808483855afa5050505050565b600081519050919050565b600082825260208201905092915050565b60005b838110156200017057808201518184015260208101905062000153565b8381111562000180576000848401525b50505050565b6000601f19601f8301169050919050565b6000620001a48262000134565b620001b081856200013f565b9350620001c281856020860162000150565b620001cd8162000186565b840191505092915050565b60006020820190508181036000830152620001f4818462000197565b905092915050565b612067806200020c6000396000f3fe608060405234801561001057600080fd5b506004361061009e5760003560e01c8063c9ecd65411610066578063c9ecd6541461014a578063ce0ee3f014610168578063d5c547db14610186578063da58c7d9146101a4578063f5b08346146101d45761009e565b806313a0c8b7146100a35780633477ee2e146100ad57806377cc5ad0146100e057806379a09c2814610110578063ab8e72d61461012e575b600080fd5b6100ab6101f0565b005b6100c760048036038101906100c29190611851565b61044c565b6040516100d79493929190611967565b60405180910390f35b6100fa60048036038101906100f59190611851565b6105bc565b6040516101079190611a8c565b60405180910390f35b61011861077c565b6040516101259190611aae565b60405180910390f35b61014860048036038101906101439190611bfe565b6107cd565b005b610152610dab565b60405161015f9190611aae565b60405180910390f35b610170610e2c565b60405161017d9190611c76565b60405180910390f35b61018e610f79565b60405161019b9190611aae565b60405180910390f35b6101be60048036038101906101b99190611851565b610fc4565b6040516101cb9190611c98565b60405180910390f35b6101ee60048036038101906101e99190611cdf565b61100e565b005b600060075414156102d357600160405180602001604052803373ffffffffffffffffffffffffffffffffffffffff168152509080600181540180825580915050600190039060005260206000200160009091909190915060008201518160000160006101000a81548173ffffffffffffffffffffffffffffffffffffffff021916908373ffffffffffffffffffffffffffffffffffffffff16021790555050506102ce6040518060400160405280601581526020017f596f7520766f74656420746f206162737461696e2e00000000000000000000008152506113a5565b61044a565b600060075490505b60018054905081101561037557600181815481106102fc576102fb611d0c565b5b9060005260206000200160000160009054906101000a900473ffffffffffffffffffffffffffffffffffffffff1673ffffffffffffffffffffffffffffffffffffffff163373ffffffffffffffffffffffffffffffffffffffff16141561036257600080fd5b808061036d90611d6a565b9150506102db565b50600160405180602001604052803373ffffffffffffffffffffffffffffffffffffffff168152509080600181540180825580915050600190039060005260206000200160009091909190915060008201518160000160006101000a81548173ffffffffffffffffffffffffffffffffffffffff021916908373ffffffffffffffffffffffffffffffffffffffff16021790555050506104496040518060400160405280601581526020017f596f7520766f74656420746f206162737461696e2e00000000000000000000008152506113a5565b5b565b6000818154811061045c57600080fd5b906000526020600020906004020160009150905080600001805461047f90611de2565b80601f01602080910402602001604051908101604052809291908181526020018280546104ab90611de2565b80156104f85780601f106104cd576101008083540402835291602001916104f8565b820191906000526020600020905b8154815290600101906020018083116104db57829003601f168201915b50505050509080600101805461050d90611de2565b80601f016020809104026020016040519081016040528092919081815260200182805461053990611de2565b80156105865780601f1061055b57610100808354040283529160200191610586565b820191906000526020600020905b81548152906001019060200180831161056957829003601f168201915b5050505050908060020160009054906101000a900473ffffffffffffffffffffffffffffffffffffffff16908060030154905084565b6105c4611699565b600082815481106105d8576105d7611d0c565b5b906000526020600020906004020160405180608001604052908160008201805461060190611de2565b80601f016020809104026020016040519081016040528092919081815260200182805461062d90611de2565b801561067a5780601f1061064f5761010080835404028352916020019161067a565b820191906000526020600020905b81548152906001019060200180831161065d57829003601f168201915b5050505050815260200160018201805461069390611de2565b80601f01602080910402602001604051908101604052809291908181526020018280546106bf90611de2565b801561070c5780601f106106e15761010080835404028352916020019161070c565b820191906000526020600020905b8154815290600101906020018083116106ef57829003601f168201915b505050505081526020016002820160009054906101000a900473ffffffffffffffffffffffffffffffffffffffff1673ffffffffffffffffffffffffffffffffffffffff1673ffffffffffffffffffffffffffffffffffffffff1681526020016003820154815250509050919050565b60006107c26040518060400160405280601b81526020017f4e756d206f662063616e646964617465732e6c656e677468206973000000000081525060008054905061143e565b600080549050905090565b60006006541415610a6e576107e06114da565b600060405180608001604052808481526020018381526020013373ffffffffffffffffffffffffffffffffffffffff16815260200160008152509080600181540180825580915050600190039060005260206000209060040201600090919091909150600082015181600001908051906020019061085f9291906116d7565b50602082015181600101908051906020019061087c9291906116d7565b5060408201518160020160006101000a81548173ffffffffffffffffffffffffffffffffffffffff021916908373ffffffffffffffffffffffffffffffffffffffff16021790555060608201518160030155505060016000805490506108e29190611e14565b600260003373ffffffffffffffffffffffffffffffffffffffff1673ffffffffffffffffffffffffffffffffffffffff16815260200190815260200160002081905550600060016000805490506109399190611e14565b8154811061094a57610949611d0c565b5b906000526020600020906004020160036000600160008054905061096e9190611e14565b8152602001908152602001600020600082018160000190805461099090611de2565b61099b92919061175d565b5060018201816001019080546109b090611de2565b6109bb92919061175d565b506002820160009054906101000a900473ffffffffffffffffffffffffffffffffffffffff168160020160006101000a81548173ffffffffffffffffffffffffffffffffffffffff021916908373ffffffffffffffffffffffffffffffffffffffff160217905550600382015481600301559050507fecbca1f2b505e471a7ff9affe672483eb33d7ca921cb2ecf9b4678205bc4267e8282604051610a61929190611e48565b60405180910390a1610da7565b600060065490505b600080549050811015610b14573373ffffffffffffffffffffffffffffffffffffffff1660008281548110610aae57610aad611d0c565b5b906000526020600020906004020160020160009054906101000a900473ffffffffffffffffffffffffffffffffffffffff1673ffffffffffffffffffffffffffffffffffffffff161415610b0157600080fd5b8080610b0c90611d6a565b915050610a76565b50610b1d6114da565b600060405180608001604052808481526020018381526020013373ffffffffffffffffffffffffffffffffffffffff168152602001600081525090806001815401808255809150506001900390600052602060002090600402016000909190919091506000820151816000019080519060200190610b9c9291906116d7565b506020820151816001019080519060200190610bb99291906116d7565b5060408201518160020160006101000a81548173ffffffffffffffffffffffffffffffffffffffff021916908373ffffffffffffffffffffffffffffffffffffffff1602179055506060820151816003015550506001600080549050610c1f9190611e14565b600260003373ffffffffffffffffffffffffffffffffffffffff1673ffffffffffffffffffffffffffffffffffffffff1681526020019081526020016000208190555060006001600080549050610c769190611e14565b81548110610c8757610c86611d0c565b5b9060005260206000209060040201600360006001600080549050610cab9190611e14565b81526020019081526020016000206000820181600001908054610ccd90611de2565b610cd892919061175d565b506001820181600101908054610ced90611de2565b610cf892919061175d565b506002820160009054906101000a900473ffffffffffffffffffffffffffffffffffffffff168160020160006101000a81548173ffffffffffffffffffffffffffffffffffffffff021916908373ffffffffffffffffffffffffffffffffffffffff160217905550600382015481600301559050507fecbca1f2b505e471a7ff9affe672483eb33d7ca921cb2ecf9b4678205bc4267e8282604051610d9e929190611e48565b60405180910390a15b5050565b6000610e246040518060400160405280601c81526020017f5468697320656c656374696f6e2077696c6c2066696e697368206174000000008152506004546040518060400160405280600e81526020017f6f6e204c696e75782054696d652e000000000000000000000000000000000000815250611548565b600454905090565b60604260045410610e3c57600080fd5b600080610e476115e7565b80935081925050506000805490506006819055506001805490506007819055507fa88f83a0c91a7cd832d0a08c0dbe22c7274c360452f0674e2bc2e78063e9a57d60008281548110610e9c57610e9b611d0c565b5b906000526020600020906004020160000183604051610ebc929190611f14565b60405180910390a160008181548110610ed857610ed7611d0c565b5b90600052602060002090600402016000018054610ef490611de2565b80601f0160208091040260200160405190810160405280929190818152602001828054610f2090611de2565b8015610f6d5780601f10610f4257610100808354040283529160200191610f6d565b820191906000526020600020905b815481529060010190602001808311610f5057829003601f168201915b50505050509250505090565b6000610fbc6040518060400160405280601981526020017f4e756d206f662073756d4f6643616e646964617465732069730000000000000081525060065461143e565b600654905090565b60018181548110610fd457600080fd5b906000526020600020016000915090508060000160009054906101000a900473ffffffffffffffffffffffffffffffffffffffff16905081565b6000600754141561118e576000600160405180602001604052803373ffffffffffffffffffffffffffffffffffffffff168152509080600181540180825580915050600190039060005260206000200160009091909190915060008201518160000160006101000a81548173ffffffffffffffffffffffffffffffffffffffff021916908373ffffffffffffffffffffffffffffffffffffffff1602179055505050600260008373ffffffffffffffffffffffffffffffffffffffff1673ffffffffffffffffffffffffffffffffffffffff1681526020019081526020016000205490506000818154811061110657611105611d0c565b5b9060005260206000209060040201600301600081548092919061112890611d6a565b91905055507f4aa4a0941035dabd1c16e597f77446e6aa020b627949ebc8ed2f79954dfda62a6000828154811061116257611161611d0c565b5b90600052602060002090600402016000016040516111809190611f44565b60405180910390a1506113a2565b600060075490505b60018054905081101561123057600181815481106111b7576111b6611d0c565b5b9060005260206000200160000160009054906101000a900473ffffffffffffffffffffffffffffffffffffffff1673ffffffffffffffffffffffffffffffffffffffff163373ffffffffffffffffffffffffffffffffffffffff16141561121d57600080fd5b808061122890611d6a565b915050611196565b506000600160405180602001604052803373ffffffffffffffffffffffffffffffffffffffff168152509080600181540180825580915050600190039060005260206000200160009091909190915060008201518160000160006101000a81548173ffffffffffffffffffffffffffffffffffffffff021916908373ffffffffffffffffffffffffffffffffffffffff1602179055505050600260008373ffffffffffffffffffffffffffffffffffffffff1673ffffffffffffffffffffffffffffffffffffffff1681526020019081526020016000205490506000818154811061131e5761131d611d0c565b5b9060005260206000209060040201600301600081548092919061134090611d6a565b91905055507f4aa4a0941035dabd1c16e597f77446e6aa020b627949ebc8ed2f79954dfda62a6000828154811061137a57611379611d0c565b5b90600052602060002090600402016000016040516113989190611f44565b60405180910390a1505b50565b61143b816040516024016113b99190611c76565b6040516020818303038152906040527f41304fac000000000000000000000000000000000000000000000000000000007bffffffffffffffffffffffffffffffffffffffffffffffffffffffff19166020820180517bffffffffffffffffffffffffffffffffffffffffffffffffffffffff8381831617835250505050611670565b50565b6114d68282604051602401611454929190611f66565b6040516020818303038152906040527fb60e72cc000000000000000000000000000000000000000000000000000000007bffffffffffffffffffffffffffffffffffffffffffffffffffffffff19166020820180517bffffffffffffffffffffffffffffffffffffffffffffffffffffffff8381831617835250505050611670565b5050565b60006006546000805490506114ef9190611e14565b146114f957600080fd5b600554426115079190611f96565b6004819055507f55c3cae3ec819b66218c64911b87eb1e29c1e3ce9f6d1f4a30b463db13e9090960045460405161153e9190611aae565b60405180910390a1565b6115e283838360405160240161156093929190611fec565b6040516020818303038152906040527f5970e089000000000000000000000000000000000000000000000000000000007bffffffffffffffffffffffffffffffffffffffffffffffffffffffff19166020820180517bffffffffffffffffffffffffffffffffffffffffffffffffffffffff8381831617835250505050611670565b505050565b600080600060065490505b60008054905081101561166b57816000828154811061161457611613611d0c565b5b906000526020600020906004020160030154111561165857600081815481106116405761163f611d0c565b5b90600052602060002090600402016003015491508092505b808061166390611d6a565b9150506115f2565b509091565b60008151905060006a636f6e736f6c652e6c6f679050602083016000808483855afa5050505050565b60405180608001604052806060815260200160608152602001600073ffffffffffffffffffffffffffffffffffffffff168152602001600081525090565b8280546116e390611de2565b90600052602060002090601f016020900481019282611705576000855561174c565b82601f1061171e57805160ff191683800117855561174c565b8280016001018555821561174c579182015b8281111561174b578251825591602001919060010190611730565b5b50905061175991906117ea565b5090565b82805461176990611de2565b90600052602060002090601f01602090048101928261178b57600085556117d9565b82601f1061179c57805485556117d9565b828001600101855582156117d957600052602060002091601f016020900482015b828111156117d85782548255916001019190600101906117bd565b5b5090506117e691906117ea565b5090565b5b808211156118035760008160009055506001016117eb565b5090565b6000604051905090565b600080fd5b600080fd5b6000819050919050565b61182e8161181b565b811461183957600080fd5b50565b60008135905061184b81611825565b92915050565b60006020828403121561186757611866611811565b5b60006118758482850161183c565b91505092915050565b600081519050919050565b600082825260208201905092915050565b60005b838110156118b857808201518184015260208101905061189d565b838111156118c7576000848401525b50505050565b6000601f19601f8301169050919050565b60006118e98261187e565b6118f38185611889565b935061190381856020860161189a565b61190c816118cd565b840191505092915050565b600073ffffffffffffffffffffffffffffffffffffffff82169050919050565b600061194282611917565b9050919050565b61195281611937565b82525050565b6119618161181b565b82525050565b6000608082019050818103600083015261198181876118de565b9050818103602083015261199581866118de565b90506119a46040830185611949565b6119b16060830184611958565b95945050505050565b600082825260208201905092915050565b60006119d68261187e565b6119e081856119ba565b93506119f081856020860161189a565b6119f9816118cd565b840191505092915050565b611a0d81611937565b82525050565b611a1c8161181b565b82525050565b60006080830160008301518482036000860152611a3f82826119cb565b91505060208301518482036020860152611a5982826119cb565b9150506040830151611a6e6040860182611a04565b506060830151611a816060860182611a13565b508091505092915050565b60006020820190508181036000830152611aa68184611a22565b905092915050565b6000602082019050611ac36000830184611958565b92915050565b600080fd5b600080fd5b7f4e487b7100000000000000000000000000000000000000000000000000000000600052604160045260246000fd5b611b0b826118cd565b810181811067ffffffffffffffff82111715611b2a57611b29611ad3565b5b80604052505050565b6000611b3d611807565b9050611b498282611b02565b919050565b600067ffffffffffffffff821115611b6957611b68611ad3565b5b611b72826118cd565b9050602081019050919050565b82818337600083830152505050565b6000611ba1611b9c84611b4e565b611b33565b905082815260208101848484011115611bbd57611bbc611ace565b5b611bc8848285611b7f565b509392505050565b600082601f830112611be557611be4611ac9565b5b8135611bf5848260208601611b8e565b91505092915050565b60008060408385031215611c1557611c14611811565b5b600083013567ffffffffffffffff811115611c3357611c32611816565b5b611c3f85828601611bd0565b925050602083013567ffffffffffffffff811115611c6057611c5f611816565b5b611c6c85828601611bd0565b9150509250929050565b60006020820190508181036000830152611c9081846118de565b905092915050565b6000602082019050611cad6000830184611949565b92915050565b611cbc81611937565b8114611cc757600080fd5b50565b600081359050611cd981611cb3565b92915050565b600060208284031215611cf557611cf4611811565b5b6000611d0384828501611cca565b91505092915050565b7f4e487b7100000000000000000000000000000000000000000000000000000000600052603260045260246000fd5b7f4e487b7100000000000000000000000000000000000000000000000000000000600052601160045260246000fd5b6000611d758261181b565b91507fffffffffffffffffffffffffffffffffffffffffffffffffffffffffffffffff821415611da857611da7611d3b565b5b600182019050919050565b7f4e487b7100000000000000000000000000000000000000000000000000000000600052602260045260246000fd5b60006002820490506001821680611dfa57607f821691505b60208210811415611e0e57611e0d611db3565b5b50919050565b6000611e1f8261181b565b9150611e2a8361181b565b925082821015611e3d57611e3c611d3b565b5b828203905092915050565b60006040820190508181036000830152611e6281856118de565b90508181036020830152611e7681846118de565b90509392505050565b60008190508160005260206000209050919050565b60008154611ea181611de2565b611eab8186611889565b94506001821660008114611ec65760018114611ed857611f0b565b60ff1983168652602086019350611f0b565b611ee185611e7f565b60005b83811015611f0357815481890152600182019150602081019050611ee4565b808801955050505b50505092915050565b60006040820190508181036000830152611f2e8185611e94565b9050611f3d6020830184611958565b9392505050565b60006020820190508181036000830152611f5e8184611e94565b905092915050565b60006040820190508181036000830152611f8081856118de565b9050611f8f6020830184611958565b9392505050565b6000611fa18261181b565b9150611fac8361181b565b9250827fffffffffffffffffffffffffffffffffffffffffffffffffffffffffffffffff03821115611fe157611fe0611d3b565b5b828201905092915050565b6000606082019050818103600083015261200681866118de565b90506120156020830185611958565b818103604083015261202781846118de565b905094935050505056fea26469706673582212201fac5b3deabf431054e75907e360ec611e5938fcc990a47e17fbc229d15c2fb364736f6c63430008090033",
  "linkReferences": {},
  "deployedLinkReferences": {}
}