{
  "_format": "hh-sol-artifact-1",
  "contractName": "ElectionFactory",
  "sourceName": "contracts/ElectionFactory.sol",
  "abi": [
    {
      "inputs": [],
      "stateMutability": "nonpayable",
      "type": "constructor"
    },
    {
      "anonymous": false,
      "inputs": [
        {
          "indexed": false,
          "internalType": "address",
          "name": "candidateAddress",
          "type": "address"
        },
        {
          "indexed": false,
          "internalType": "string",
          "name": "name",
          "type": "string"
        },
        {
          "indexed": false,
          "internalType": "string",
          "name": "publicPromise",
          "type": "string"
        }
      ],
      "name": "NewCandidate",
      "type": "event"
    },
    {
      "anonymous": false,
      "inputs": [
        {
          "indexed": false,
          "internalType": "string",
          "name": "newChairmanName",
          "type": "string"
        },
        {
          "indexed": false,
          "internalType": "string",
          "name": "publicPromise",
          "type": "string"
        },
        {
          "indexed": false,
          "internalType": "uint256",
          "name": "voteCount",
          "type": "uint256"
        }
      ],
      "name": "NewChairman",
      "type": "event"
    },
    {
      "anonymous": false,
      "inputs": [
        {
          "indexed": false,
          "internalType": "uint256",
          "name": "electionPeriod",
          "type": "uint256"
        }
      ],
      "name": "StartNewElection",
      "type": "event"
    },
    {
      "anonymous": false,
      "inputs": [
        {
          "indexed": true,
          "internalType": "address",
          "name": "from",
          "type": "address"
        }
      ],
      "name": "VoteAbstain",
      "type": "event"
    },
    {
      "anonymous": false,
      "inputs": [
        {
          "indexed": true,
          "internalType": "address",
          "name": "from",
          "type": "address"
        },
        {
          "indexed": true,
          "internalType": "address",
          "name": "to",
          "type": "address"
        },
        {
          "indexed": false,
          "internalType": "string",
          "name": "candidateName",
          "type": "string"
        }
      ],
      "name": "VoteSomeone",
      "type": "event"
    },
    {
      "inputs": [],
      "name": "FinishElection",
      "outputs": [
        {
          "internalType": "string",
          "name": "",
          "type": "string"
        }
      ],
      "stateMutability": "nonpayable",
      "type": "function"
    },
    {
      "inputs": [],
      "name": "GetAllCandidates",
      "outputs": [
        {
          "components": [
            {
              "internalType": "string",
              "name": "name",
              "type": "string"
            },
            {
              "internalType": "string",
              "name": "publicPromise",
              "type": "string"
            },
            {
              "internalType": "address",
              "name": "myAddress",
              "type": "address"
            },
            {
              "internalType": "uint256",
              "name": "voteCount",
              "type": "uint256"
            }
          ],
          "internalType": "struct ElectionFactory.Candidate[]",
          "name": "",
          "type": "tuple[]"
        }
      ],
      "stateMutability": "view",
      "type": "function"
    },
    {
      "inputs": [],
      "name": "GetElectionPeriod",
      "outputs": [
        {
          "internalType": "uint256",
          "name": "",
          "type": "uint256"
        }
      ],
      "stateMutability": "view",
      "type": "function"
    },
    {
      "inputs": [],
      "name": "GetNewChairman",
      "outputs": [
        {
          "internalType": "string",
          "name": "",
          "type": "string"
        }
      ],
      "stateMutability": "view",
      "type": "function"
    },
    {
      "inputs": [
        {
          "internalType": "string",
          "name": "_name",
          "type": "string"
        },
        {
          "internalType": "string",
          "name": "_publicPromise",
          "type": "string"
        }
      ],
      "name": "RunForChairman",
      "outputs": [],
      "stateMutability": "nonpayable",
      "type": "function"
    },
    {
      "inputs": [
        {
          "internalType": "address",
          "name": "_to",
          "type": "address"
        }
      ],
      "name": "Vote",
      "outputs": [],
      "stateMutability": "nonpayable",
      "type": "function"
    },
    {
      "inputs": [],
      "name": "VoteToAbstain",
      "outputs": [],
      "stateMutability": "nonpayable",
      "type": "function"
    },
    {
      "inputs": [
        {
          "internalType": "uint256",
          "name": "",
          "type": "uint256"
        }
      ],
      "name": "candidates",
      "outputs": [
        {
          "internalType": "string",
          "name": "name",
          "type": "string"
        },
        {
          "internalType": "string",
          "name": "publicPromise",
          "type": "string"
        },
        {
          "internalType": "address",
          "name": "myAddress",
          "type": "address"
        },
        {
          "internalType": "uint256",
          "name": "voteCount",
          "type": "uint256"
        }
      ],
      "stateMutability": "view",
      "type": "function"
    },
    {
      "inputs": [
        {
          "internalType": "uint256",
          "name": "",
          "type": "uint256"
        }
      ],
      "name": "voters",
      "outputs": [
        {
          "internalType": "address",
          "name": "voterAddress",
          "type": "address"
        }
      ],
      "stateMutability": "view",
      "type": "function"
    }
  ],
  "bytecode": "0x608060405260b46005553480156200001657600080fd5b50620000626040518060400160405280602081526020017f48657265206973206d7920666972737420736d61727420636f6e7472616374218152506200006860201b620010181760201c565b620001fc565b62000108816040516024016200007f9190620001d8565b6040516020818303038152906040527f41304fac000000000000000000000000000000000000000000000000000000007bffffffffffffffffffffffffffffffffffffffffffffffffffffffff19166020820180517bffffffffffffffffffffffffffffffffffffffffffffffffffffffff83818316178352505050506200010b60201b60201c565b50565b60008151905060006a636f6e736f6c652e6c6f679050602083016000808483855afa5050505050565b600081519050919050565b600082825260208201905092915050565b60005b838110156200017057808201518184015260208101905062000153565b8381111562000180576000848401525b50505050565b6000601f19601f8301169050919050565b6000620001a48262000134565b620001b081856200013f565b9350620001c281856020860162000150565b620001cd8162000186565b840191505092915050565b60006020820190508181036000830152620001f4818462000197565b905092915050565b611d00806200020c6000396000f3fe608060405234801561001057600080fd5b50600436106100935760003560e01c80637d0c4014116100665780637d0c401414610111578063ab8e72d61461012f578063ce0ee3f01461014b578063da58c7d914610169578063f5b083461461019957610093565b806313a0c8b7146100985780632b590142146100a25780633477ee2e146100c0578063678528f4146100f3575b600080fd5b6100a06101b5565b005b6100aa610340565b6040516100b791906114c9565b60405180910390f35b6100da60048036038101906100d59190611535565b6103d2565b6040516100ea94939291906115b2565b60405180910390f35b6100fb610542565b6040516101089190611799565b60405180910390f35b610119610725565b60405161012691906117bb565b60405180910390f35b6101496004803603810190610144919061190b565b61072f565b005b610153610a6d565b60405161016091906114c9565b60405180910390f35b610183600480360381019061017e9190611535565b610cd5565b6040516101909190611983565b60405180910390f35b6101b360048036038101906101ae91906119ca565b610d1f565b005b600060075490505b60018054905081101561025757600181815481106101de576101dd6119f7565b5b9060005260206000200160000160009054906101000a900473ffffffffffffffffffffffffffffffffffffffff1673ffffffffffffffffffffffffffffffffffffffff163373ffffffffffffffffffffffffffffffffffffffff16141561024457600080fd5b808061024f90611a55565b9150506101bd565b50426004541161026657600080fd5b600160405180602001604052803373ffffffffffffffffffffffffffffffffffffffff168152509080600181540180825580915050600190039060005260206000200160009091909190915060008201518160000160006101000a81548173ffffffffffffffffffffffffffffffffffffffff021916908373ffffffffffffffffffffffffffffffffffffffff16021790555050503373ffffffffffffffffffffffffffffffffffffffff167f518c1f05efadcef161fec28440cc5bca6561dcffc2e515fc4a5f7e51935b9b3960405160405180910390a2565b60606008805461034f90611acd565b80601f016020809104026020016040519081016040528092919081815260200182805461037b90611acd565b80156103c85780601f1061039d576101008083540402835291602001916103c8565b820191906000526020600020905b8154815290600101906020018083116103ab57829003601f168201915b5050505050905090565b600081815481106103e257600080fd5b906000526020600020906004020160009150905080600001805461040590611acd565b80601f016020809104026020016040519081016040528092919081815260200182805461043190611acd565b801561047e5780601f106104535761010080835404028352916020019161047e565b820191906000526020600020905b81548152906001019060200180831161046157829003601f168201915b50505050509080600101805461049390611acd565b80601f01602080910402602001604051908101604052809291908181526020018280546104bf90611acd565b801561050c5780601f106104e15761010080835404028352916020019161050c565b820191906000526020600020905b8154815290600101906020018083116104ef57829003601f168201915b5050505050908060020160009054906101000a900473ffffffffffffffffffffffffffffffffffffffff16908060030154905084565b60606000805480602002602001604051908101604052809291908181526020016000905b8282101561071c578382906000526020600020906004020160405180608001604052908160008201805461059990611acd565b80601f01602080910402602001604051908101604052809291908181526020018280546105c590611acd565b80156106125780601f106105e757610100808354040283529160200191610612565b820191906000526020600020905b8154815290600101906020018083116105f557829003601f168201915b5050505050815260200160018201805461062b90611acd565b80601f016020809104026020016040519081016040528092919081815260200182805461065790611acd565b80156106a45780601f10610679576101008083540402835291602001916106a4565b820191906000526020600020905b81548152906001019060200180831161068757829003601f168201915b505050505081526020016002820160009054906101000a900473ffffffffffffffffffffffffffffffffffffffff1673ffffffffffffffffffffffffffffffffffffffff1673ffffffffffffffffffffffffffffffffffffffff16815260200160038201548152505081526020019060010190610566565b50505050905090565b6000600454905090565b600060065490505b6000805490508110156107d5573373ffffffffffffffffffffffffffffffffffffffff166000828154811061076f5761076e6119f7565b5b906000526020600020906004020160020160009054906101000a900473ffffffffffffffffffffffffffffffffffffffff1673ffffffffffffffffffffffffffffffffffffffff1614156107c257600080fd5b80806107cd90611a55565b915050610737565b506107de6110b1565b600060405180608001604052808481526020018381526020013373ffffffffffffffffffffffffffffffffffffffff16815260200160008152509080600181540180825580915050600190039060005260206000209060040201600090919091909150600082015181600001908051906020019061085d929190611273565b50602082015181600101908051906020019061087a929190611273565b5060408201518160020160006101000a81548173ffffffffffffffffffffffffffffffffffffffff021916908373ffffffffffffffffffffffffffffffffffffffff16021790555060608201518160030155505060016000805490506108e09190611aff565b600260003373ffffffffffffffffffffffffffffffffffffffff1673ffffffffffffffffffffffffffffffffffffffff16815260200190815260200160002081905550600060016000805490506109379190611aff565b81548110610948576109476119f7565b5b906000526020600020906004020160036000600160008054905061096c9190611aff565b8152602001908152602001600020600082018160000190805461098e90611acd565b6109999291906112f9565b5060018201816001019080546109ae90611acd565b6109b99291906112f9565b506002820160009054906101000a900473ffffffffffffffffffffffffffffffffffffffff168160020160006101000a81548173ffffffffffffffffffffffffffffffffffffffff021916908373ffffffffffffffffffffffffffffffffffffffff160217905550600382015481600301559050507fe8c4efdd68af1a856b9342810ea9e2f1ed012ec5f83cade055983593e0f32ae3338383604051610a6193929190611b33565b60405180910390a15050565b60604260045410610a7d57600080fd5b600080610a88611116565b809350819250505060008054905060068190555060018054905060078190555060008181548110610abc57610abb6119f7565b5b90600052602060002090600402016000016008908054610adb90611acd565b610ae6929190611386565b507f86d21fda527a6492e3197e289a268ff3830353f451f8cba94fc5e1693d00292f60008281548110610b1c57610b1b6119f7565b5b906000526020600020906004020160000160008381548110610b4157610b406119f7565b5b906000526020600020906004020160010184604051610b6293929190611c0d565b60405180910390a1610c2060008281548110610b8157610b806119f7565b5b90600052602060002090600402016000018054610b9d90611acd565b80601f0160208091040260200160405190810160405280929190818152602001828054610bc990611acd565b8015610c165780601f10610beb57610100808354040283529160200191610c16565b820191906000526020600020905b815481529060010190602001808311610bf957829003601f168201915b5050505050611018565b60008181548110610c3457610c336119f7565b5b90600052602060002090600402016000018054610c5090611acd565b80601f0160208091040260200160405190810160405280929190818152602001828054610c7c90611acd565b8015610cc95780601f10610c9e57610100808354040283529160200191610cc9565b820191906000526020600020905b815481529060010190602001808311610cac57829003601f168201915b50505050509250505090565b60018181548110610ce557600080fd5b906000526020600020016000915090508060000160009054906101000a900473ffffffffffffffffffffffffffffffffffffffff16905081565b600060075490505b600180549050811015610dc15760018181548110610d4857610d476119f7565b5b9060005260206000200160000160009054906101000a900473ffffffffffffffffffffffffffffffffffffffff1673ffffffffffffffffffffffffffffffffffffffff163373ffffffffffffffffffffffffffffffffffffffff161415610dae57600080fd5b8080610db990611a55565b915050610d27565b50600060065490505b600080549050811015610e68573373ffffffffffffffffffffffffffffffffffffffff1660008281548110610e0257610e016119f7565b5b906000526020600020906004020160020160009054906101000a900473ffffffffffffffffffffffffffffffffffffffff1673ffffffffffffffffffffffffffffffffffffffff161415610e5557600080fd5b8080610e6090611a55565b915050610dca565b504260045411610e7757600080fd5b6000600160405180602001604052803373ffffffffffffffffffffffffffffffffffffffff168152509080600181540180825580915050600190039060005260206000200160009091909190915060008201518160000160006101000a81548173ffffffffffffffffffffffffffffffffffffffff021916908373ffffffffffffffffffffffffffffffffffffffff1602179055505050600260008373ffffffffffffffffffffffffffffffffffffffff1673ffffffffffffffffffffffffffffffffffffffff16815260200190815260200160002054905060008181548110610f6457610f636119f7565b5b90600052602060002090600402016003016000815480929190610f8690611a55565b91905055508173ffffffffffffffffffffffffffffffffffffffff163373ffffffffffffffffffffffffffffffffffffffff167fb4d4a20f077308ce4bfbf1e397fc2d4ab558580008c17725d3f31040ca35fe0860008481548110610fee57610fed6119f7565b5b906000526020600020906004020160000160405161100c9190611c52565b60405180910390a35050565b6110ae8160405160240161102c91906114c9565b6040516020818303038152906040527f41304fac000000000000000000000000000000000000000000000000000000007bffffffffffffffffffffffffffffffffffffffffffffffffffffffff19166020820180517bffffffffffffffffffffffffffffffffffffffffffffffffffffffff83818316178352505050506111b1565b50565b42600454101561111457600554426110c99190611c74565b6004819055506110da6004546111da565b7f95cf4c7d1bec19e479bd25a75ffad3a080121f5e506dfe6dd1f726b3a06ae8cf60045460405161110b91906117bb565b60405180910390a15b565b600080600060065490505b60008054905081101561119a578160008281548110611143576111426119f7565b5b9060005260206000209060040201600301541115611187576000818154811061116f5761116e6119f7565b5b90600052602060002090600402016003015491508092505b808061119290611a55565b915050611121565b506111a4826111da565b6111ad816111da565b9091565b60008151905060006a636f6e736f6c652e6c6f679050602083016000808483855afa5050505050565b611270816040516024016111ee91906117bb565b6040516020818303038152906040527ff82c50f1000000000000000000000000000000000000000000000000000000007bffffffffffffffffffffffffffffffffffffffffffffffffffffffff19166020820180517bffffffffffffffffffffffffffffffffffffffffffffffffffffffff83818316178352505050506111b1565b50565b82805461127f90611acd565b90600052602060002090601f0160209004810192826112a157600085556112e8565b82601f106112ba57805160ff19168380011785556112e8565b828001600101855582156112e8579182015b828111156112e75782518255916020019190600101906112cc565b5b5090506112f59190611413565b5090565b82805461130590611acd565b90600052602060002090601f0160209004810192826113275760008555611375565b82601f106113385780548555611375565b8280016001018555821561137557600052602060002091601f016020900482015b82811115611374578254825591600101919060010190611359565b5b5090506113829190611413565b5090565b82805461139290611acd565b90600052602060002090601f0160209004810192826113b45760008555611402565b82601f106113c55780548555611402565b8280016001018555821561140257600052602060002091601f016020900482015b828111156114015782548255916001019190600101906113e6565b5b50905061140f9190611413565b5090565b5b8082111561142c576000816000905550600101611414565b5090565b600081519050919050565b600082825260208201905092915050565b60005b8381101561146a57808201518184015260208101905061144f565b83811115611479576000848401525b50505050565b6000601f19601f8301169050919050565b600061149b82611430565b6114a5818561143b565b93506114b581856020860161144c565b6114be8161147f565b840191505092915050565b600060208201905081810360008301526114e38184611490565b905092915050565b6000604051905090565b600080fd5b600080fd5b6000819050919050565b611512816114ff565b811461151d57600080fd5b50565b60008135905061152f81611509565b92915050565b60006020828403121561154b5761154a6114f5565b5b600061155984828501611520565b91505092915050565b600073ffffffffffffffffffffffffffffffffffffffff82169050919050565b600061158d82611562565b9050919050565b61159d81611582565b82525050565b6115ac816114ff565b82525050565b600060808201905081810360008301526115cc8187611490565b905081810360208301526115e08186611490565b90506115ef6040830185611594565b6115fc60608301846115a3565b95945050505050565b600081519050919050565b600082825260208201905092915050565b6000819050602082019050919050565b600082825260208201905092915050565b600061164d82611430565b6116578185611631565b935061166781856020860161144c565b6116708161147f565b840191505092915050565b61168481611582565b82525050565b611693816114ff565b82525050565b600060808301600083015184820360008601526116b68282611642565b915050602083015184820360208601526116d08282611642565b91505060408301516116e5604086018261167b565b5060608301516116f8606086018261168a565b508091505092915050565b600061170f8383611699565b905092915050565b6000602082019050919050565b600061172f82611605565b6117398185611610565b93508360208202850161174b85611621565b8060005b8581101561178757848403895281516117688582611703565b945061177383611717565b925060208a0199505060018101905061174f565b50829750879550505050505092915050565b600060208201905081810360008301526117b38184611724565b905092915050565b60006020820190506117d060008301846115a3565b92915050565b600080fd5b600080fd5b7f4e487b7100000000000000000000000000000000000000000000000000000000600052604160045260246000fd5b6118188261147f565b810181811067ffffffffffffffff82111715611837576118366117e0565b5b80604052505050565b600061184a6114eb565b9050611856828261180f565b919050565b600067ffffffffffffffff821115611876576118756117e0565b5b61187f8261147f565b9050602081019050919050565b82818337600083830152505050565b60006118ae6118a98461185b565b611840565b9050828152602081018484840111156118ca576118c96117db565b5b6118d584828561188c565b509392505050565b600082601f8301126118f2576118f16117d6565b5b813561190284826020860161189b565b91505092915050565b60008060408385031215611922576119216114f5565b5b600083013567ffffffffffffffff8111156119405761193f6114fa565b5b61194c858286016118dd565b925050602083013567ffffffffffffffff81111561196d5761196c6114fa565b5b611979858286016118dd565b9150509250929050565b60006020820190506119986000830184611594565b92915050565b6119a781611582565b81146119b257600080fd5b50565b6000813590506119c48161199e565b92915050565b6000602082840312156119e0576119df6114f5565b5b60006119ee848285016119b5565b91505092915050565b7f4e487b7100000000000000000000000000000000000000000000000000000000600052603260045260246000fd5b7f4e487b7100000000000000000000000000000000000000000000000000000000600052601160045260246000fd5b6000611a60826114ff565b91507fffffffffffffffffffffffffffffffffffffffffffffffffffffffffffffffff821415611a9357611a92611a26565b5b600182019050919050565b7f4e487b7100000000000000000000000000000000000000000000000000000000600052602260045260246000fd5b60006002820490506001821680611ae557607f821691505b60208210811415611af957611af8611a9e565b5b50919050565b6000611b0a826114ff565b9150611b15836114ff565b925082821015611b2857611b27611a26565b5b828203905092915050565b6000606082019050611b486000830186611594565b8181036020830152611b5a8185611490565b90508181036040830152611b6e8184611490565b9050949350505050565b60008190508160005260206000209050919050565b60008154611b9a81611acd565b611ba4818661143b565b94506001821660008114611bbf5760018114611bd157611c04565b60ff1983168652602086019350611c04565b611bda85611b78565b60005b83811015611bfc57815481890152600182019150602081019050611bdd565b808801955050505b50505092915050565b60006060820190508181036000830152611c278186611b8d565b90508181036020830152611c3b8185611b8d565b9050611c4a60408301846115a3565b949350505050565b60006020820190508181036000830152611c6c8184611b8d565b905092915050565b6000611c7f826114ff565b9150611c8a836114ff565b9250827fffffffffffffffffffffffffffffffffffffffffffffffffffffffffffffffff03821115611cbf57611cbe611a26565b5b82820190509291505056fea26469706673582212203e3b8144a57fab6a334913db382e2433701ff5743c1bc44d6daaca6a92f6289264736f6c63430008090033",
  "linkReferences": {},
  "deployedLinkReferences": {}
}